:100000000C943E000C945B000C945B000C945B0021
:100010000C945B000C945B000C945B000C945B00F4
:100020000C945B000C945B000C945B000C945B00E4
:100030000C945B000C945B000C945B000C945B00D4
:100040000C945B000C945B000C945B000C945B00C4
:100050000C945B000C94E1000C945B000C945B002E
:100060000C945B000C945B000C945B000C945B00A4
:100070000C945B000C945B000C945B0011241FBE7D
:10008000CFEFD0E1DEBFCDBF11E0A0E0B1E0E6E907
:10009000F2E002C005900D92A830B107D9F721E037
:1000A000A8E0B1E001C01D92A032B207E1F70E94C2
:1000B0005D000C9449010C94000078940E94820029
:1000C0000E94710066E080E091E00E948D002FEFB9
:1000D00089E698E1215080409040E1F700C000009F
:1000E000F1CF83E390E09093C5008093C400E1ECEE
:1000F000F0E0808188618083E2ECF0E080818C60B8
:10010000808308958CE091E0909309018093080129
:1001100090930B0180930A0108950F931F93CF933F
:10012000DF93EC014FB7F894809108019091090199
:1001300020910A0130910B018217930750F0E4E1FE
:10014000F0E0DF01A81BB90BCD01820F931F0197CF
:1001500003C0820F931F01974FBF062F10E0801737
:1001600091074CF120E030E01CC0A0910801B09153
:100170000901CE01820F931FFC0180818C93809135
:100180000801909109018C50914064E170E00E9457
:100190002101835F9E4F90930901809308012F5F97
:1001A0003F4F201731070CF3E1ECF0E080818062D3
:1001B000808380E001C08FEFDF91CF911F910F917D
:1001C00008951F920F920FB60F9211245F936F93B1
:1001D0007F938F939F93AF93BF93EF93FF93E091A0
:1001E0000A01F0910B018091080190910901E81733
:1001F000F90731F4E1ECF0E080818F7D808313C05A
:1002000080818093C60080910A0190910B018C50EF
:10021000914064E170E00E942101835F9E4F9093C2
:100220000B0180930A01FF91EF91BF91AF919F91D4
:100230008F917F916F915F910F900FBE0F901F90E4
:10024000189597FB072E16F4009407D077FD09D078
:100250000E94350107FC05D03EF4909581959F4F93
:100260000895709561957F4F0895AA1BBB1B51E1BE
:1002700007C0AA1FBB1FA617B70710F0A61BB70B16
:10028000881F991F5A95A9F780959095BC01CD01BB
:060290000895F894FFCF71
:0802960054686F6D61730000F4
:00000001FF
